{
  "contractName": "MockUSDT",
  "abi": [
    {
      "anonymous": false,
      "inputs": [
        {
          "indexed": true,
          "internalType": "address",
          "name": "owner",
          "type": "address"
        },
        {
          "indexed": true,
          "internalType": "address",
          "name": "spender",
          "type": "address"
        },
        {
          "indexed": false,
          "internalType": "uint256",
          "name": "value",
          "type": "uint256"
        }
      ],
      "name": "Approval",
      "type": "event"
    },
    {
      "anonymous": false,
      "inputs": [
        {
          "indexed": true,
          "internalType": "address",
          "name": "from",
          "type": "address"
        },
        {
          "indexed": true,
          "internalType": "address",
          "name": "to",
          "type": "address"
        },
        {
          "indexed": false,
          "internalType": "uint256",
          "name": "value",
          "type": "uint256"
        }
      ],
      "name": "Transfer",
      "type": "event"
    },
    {
      "inputs": [
        {
          "internalType": "address",
          "name": "",
          "type": "address"
        },
        {
          "internalType": "address",
          "name": "",
          "type": "address"
        }
      ],
      "name": "allowance",
      "outputs": [
        {
          "internalType": "uint256",
          "name": "",
          "type": "uint256"
        }
      ],
      "stateMutability": "view",
      "type": "function",
      "constant": true
    },
    {
      "inputs": [
        {
          "internalType": "address",
          "name": "",
          "type": "address"
        }
      ],
      "name": "balanceOf",
      "outputs": [
        {
          "internalType": "uint256",
          "name": "",
          "type": "uint256"
        }
      ],
      "stateMutability": "view",
      "type": "function",
      "constant": true
    },
    {
      "inputs": [],
      "name": "decimals",
      "outputs": [
        {
          "internalType": "uint8",
          "name": "",
          "type": "uint8"
        }
      ],
      "stateMutability": "view",
      "type": "function",
      "constant": true
    },
    {
      "inputs": [],
      "name": "name",
      "outputs": [
        {
          "internalType": "string",
          "name": "",
          "type": "string"
        }
      ],
      "stateMutability": "view",
      "type": "function",
      "constant": true
    },
    {
      "inputs": [],
      "name": "symbol",
      "outputs": [
        {
          "internalType": "string",
          "name": "",
          "type": "string"
        }
      ],
      "stateMutability": "view",
      "type": "function",
      "constant": true
    },
    {
      "inputs": [],
      "name": "totalSupply",
      "outputs": [
        {
          "internalType": "uint256",
          "name": "",
          "type": "uint256"
        }
      ],
      "stateMutability": "view",
      "type": "function",
      "constant": true
    },
    {
      "inputs": [
        {
          "internalType": "address",
          "name": "_to",
          "type": "address"
        },
        {
          "internalType": "uint256",
          "name": "_amount",
          "type": "uint256"
        }
      ],
      "name": "faucet",
      "outputs": [],
      "stateMutability": "nonpayable",
      "type": "function"
    },
    {
      "inputs": [
        {
          "internalType": "address",
          "name": "_to",
          "type": "address"
        },
        {
          "internalType": "uint256",
          "name": "_amount",
          "type": "uint256"
        }
      ],
      "name": "transfer",
      "outputs": [
        {
          "internalType": "bool",
          "name": "",
          "type": "bool"
        }
      ],
      "stateMutability": "nonpayable",
      "type": "function"
    },
    {
      "inputs": [
        {
          "internalType": "address",
          "name": "_spender",
          "type": "address"
        },
        {
          "internalType": "uint256",
          "name": "_amount",
          "type": "uint256"
        }
      ],
      "name": "approve",
      "outputs": [
        {
          "internalType": "bool",
          "name": "",
          "type": "bool"
        }
      ],
      "stateMutability": "nonpayable",
      "type": "function"
    },
    {
      "inputs": [
        {
          "internalType": "address",
          "name": "_from",
          "type": "address"
        },
        {
          "internalType": "address",
          "name": "_to",
          "type": "address"
        },
        {
          "internalType": "uint256",
          "name": "_amount",
          "type": "uint256"
        }
      ],
      "name": "transferFrom",
      "outputs": [
        {
          "internalType": "bool",
          "name": "",
          "type": "bool"
        }
      ],
      "stateMutability": "nonpayable",
      "type": "function"
    }
  ],
  "bytecode": "0x6080604052346101155761001460005461011a565b601f81116100cc575b507f4d6f636b2054657468657220555344000000000000000000000000000000001e60005560015461004e9061011a565b601f8111610082575b600a641b5554d11560da1b016001556002805460ff191660061790556040516108bd90816101558239f35b6001600052601f0160051c7fb10e2d527612073b26eecdfd717e6a320cf44b4afac2b0732d9fcbe2b7fa0cf6908101905b8181106100c05750610057565b600081556001016100b3565b60008052601f0160051c7f290decd9548b62a8d60345a988386fc84ba6bc95484008f6362f93160ef3e563908101905b818110610109575061001d565b600081556001016100fc565b600080fd5b90600182811c9216801561014a575b602083101461013457565b634e487b7160e01b600052602260045260246000fd5b91607f169161012956fe6080604052600436101561001257600080fd5b60003560e01c806306fdde0314610699578063095ea7b3146105d657806318160ddd146105b857806323b872dd14610419578063313ce567146103f857806370a08231146103be5780637b56c2b2146102b857806395d89b4114610197578063a9059cbb146100e05763dd62ed3e1461008a57600080fd5b346100db5760403660031901126100db576100a361079c565b6100ab6107b2565b6001600160a01b039182166000908152600560209081526040808320949093168252928352819020549051908152f35b600080fd5b346100db5760403660031901126100db576100f961079c565b6001600160a01b03166024356101108215156107c8565b33600052600460205261012a816040600020541015610814565b3360005260046020526040600020610143828254610857565b9055816000526004602052604060002061015e82825461087a565b90556040519081527fddf252ad1be2c89b69c2b068fc378daa952ba7f163c4a11628f55a4df523b3ef60203392a3602060405160018152f35b346100db5760003660031901126100db576000604051816001548060011c906001811680156102ae575b60208310811461029a5782855290811561027e575060011461022a575b50819003601f01601f1916810167ffffffffffffffff81118282101761021657610212925060405260405191829182610753565b0390f35b634e487b7160e01b83526041600452602483fd5b600184529050827fb10e2d527612073b26eecdfd717e6a320cf44b4afac2b0732d9fcbe2b7fa0cf65b828210610268575060209150820101836101de565b6001816020925483858801015201910190610253565b90506020925060ff191682840152151560051b820101836101de565b634e487b7160e01b86526022600452602486fd5b91607f16916101c1565b346100db5760403660031901126100db576102d161079c565b6001600160a01b0316602435811561037957801561033f577fddf252ad1be2c89b69c2b068fc378daa952ba7f163c4a11628f55a4df523b3ef60208261031b60009460035461087a565b600355848452600482526040842061033482825461087a565b9055604051908152a3005b60405162461bcd60e51b81526020600482015260126024820152710416d6f756e74206d757374206265203e20360741b6044820152606490fd5b60405162461bcd60e51b815260206004820152601b60248201527f43616e6e6f74206d696e7420746f207a65726f206164647265737300000000006044820152606490fd5b346100db5760203660031901126100db576001600160a01b036103df61079c565b1660005260046020526020604060002054604051908152f35b346100db5760003660031901126100db57602060ff60025416604051908152f35b346100db5760603660031901126100db5761043261079c565b61043a6107b2565b604435916001600160a01b0316908115610569576001600160a01b0316916104638315156107c8565b81600052600460205261047d816040600020541015610814565b6000828152600560209081526040808320338452909152902054811161052b5760207fddf252ad1be2c89b69c2b068fc378daa952ba7f163c4a11628f55a4df523b3ef91836000526004825260406000206104d9828254610857565b905560008481526005835260408082203383528452902080546104fd908390610857565b90558460005260048252604060002061051782825461087a565b9055604051908152a3602060405160018152f35b60405162461bcd60e51b8152602060048201526016602482015275496e73756666696369656e7420616c6c6f77616e636560501b6044820152606490fd5b60405162461bcd60e51b815260206004820152602160248201527f43616e6e6f74207472616e736665722066726f6d207a65726f206164647265736044820152607360f81b6064820152608490fd5b346100db5760003660031901126100db576020600354604051908152f35b346100db5760403660031901126100db576105ef61079c565b6001600160a01b0316602435811561065457336000526005602052604060002082600052602052806040600020556040519081527f8c5be1e5ebec7d5bd14f71427d1e84f3dd0314c0f7b2291e5b200ac8c7c3b92560203392a3602060405160018152f35b60405162461bcd60e51b815260206004820152601b60248201527f43616e6e6f7420617070726f7665207a65726f206164647265737300000000006044820152606490fd5b346100db5760003660031901126100db5760006040518182548060011c90600181168015610749575b60208310811461029a5782855290811561027e57506001146107125750819003601f01601f1916810167ffffffffffffffff81118282101761021657610212925060405260405191829182610753565b90508280526020832083905b828210610733575060209150820101836101de565b600181602092548385880101520191019061071e565b91607f16916106c2565b91909160208152825180602083015260005b818110610786575060409293506000838284010152601f8019910116010190565b8060208092870101516040828601015201610765565b600435906001600160a01b03821682036100db57565b602435906001600160a01b03821682036100db57565b156107cf57565b60405162461bcd60e51b815260206004820152601f60248201527f43616e6e6f74207472616e7366657220746f207a65726f2061646472657373006044820152606490fd5b1561081b57565b60405162461bcd60e51b8152602060048201526014602482015273496e73756666696369656e742062616c616e636560601b6044820152606490fd5b9190820391821161086457565b634e487b7160e01b600052601160045260246000fd5b919082018092116108645756fea2646970667358221220478f0946a3879af25ae2a3ac438935618d86a11d000ed475cf2bd6f97860a44264736f6c634300081c0033",
  "immutableReferences": {},
  "source": "// SPDX-License-Identifier: MIT\npragma solidity 0.8.28;\n\n/**\n * @title MockUSDT\n * @notice A local-only ERC-20 token that mimics Tether (USDT) for testing\n * @dev 6 decimals (same as real USDT). Includes an open faucet so any\n *      address can mint test tokens. DO NOT deploy to mainnet.\n *\n *      Usage with TrustChain:\n *        1. Deploy MockUSDT\n *        2. Call CharityPlatform.setStablecoinAddress(mockUSDT.address)\n *        3. Donors call mockUSDT.faucet(myAddress, 1000e6) to get 1000 mUSDT\n *        4. Donors call mockUSDT.approve(charityPlatform.address, amount)\n *        5. Donors call charityPlatform.donateStablecoin(campaignId, amount)\n */\ncontract MockUSDT {\n    string public name = \"Mock Tether USD\";\n    string public symbol = \"mUSDT\";\n    uint8 public decimals = 6;\n    uint256 public totalSupply;\n\n    mapping(address => uint256) public balanceOf;\n    mapping(address => mapping(address => uint256)) public allowance;\n\n    event Transfer(address indexed from, address indexed to, uint256 value);\n    event Approval(address indexed owner, address indexed spender, uint256 value);\n\n    /// @notice Mint test tokens to any address (open faucet — testing only)\n    /// @param _to     Recipient address\n    /// @param _amount Amount in 6-decimal units (e.g. 1000e6 = 1000 USDT)\n    function faucet(address _to, uint256 _amount) public {\n        require(_to != address(0), \"Cannot mint to zero address\");\n        require(_amount > 0, \"Amount must be > 0\");\n        totalSupply += _amount;\n        balanceOf[_to] += _amount;\n        emit Transfer(address(0), _to, _amount);\n    }\n\n    /// @notice Transfer tokens to another address\n    function transfer(address _to, uint256 _amount) public returns (bool) {\n        require(_to != address(0), \"Cannot transfer to zero address\");\n        require(balanceOf[msg.sender] >= _amount, \"Insufficient balance\");\n        balanceOf[msg.sender] -= _amount;\n        balanceOf[_to] += _amount;\n        emit Transfer(msg.sender, _to, _amount);\n        return true;\n    }\n\n    /// @notice Approve a spender to transfer tokens on your behalf\n    function approve(address _spender, uint256 _amount) public returns (bool) {\n        require(_spender != address(0), \"Cannot approve zero address\");\n        allowance[msg.sender][_spender] = _amount;\n        emit Approval(msg.sender, _spender, _amount);\n        return true;\n    }\n\n    /// @notice Transfer tokens from one address to another (requires allowance)\n    function transferFrom(address _from, address _to, uint256 _amount) public returns (bool) {\n        require(_from != address(0), \"Cannot transfer from zero address\");\n        require(_to != address(0), \"Cannot transfer to zero address\");\n        require(balanceOf[_from] >= _amount, \"Insufficient balance\");\n        require(allowance[_from][msg.sender] >= _amount, \"Insufficient allowance\");\n        balanceOf[_from] -= _amount;\n        allowance[_from][msg.sender] -= _amount;\n        balanceOf[_to] += _amount;\n        emit Transfer(_from, _to, _amount);\n        return true;\n    }\n}\n",
  "sourcePath": "/Users/amrinder/Downloads/claude/charity-platform/blockchain/contracts/MockUSDT.sol",
  "compiler": {
    "name": "solc",
    "version": "0.8.28+commit.7893614a.Emscripten.clang"
  },
  "schemaVersion": "3.4.16",
  "updatedAt": "2026-04-13T16:43:10.369Z",
  "networkType": "ethereum",
  "devdoc": {
    "details": "6 decimals (same as real USDT). Includes an open faucet so any      address can mint test tokens. DO NOT deploy to mainnet.      Usage with TrustChain:        1. Deploy MockUSDT        2. Call CharityPlatform.setStablecoinAddress(mockUSDT.address)        3. Donors call mockUSDT.faucet(myAddress, 1000e6) to get 1000 mUSDT        4. Donors call mockUSDT.approve(charityPlatform.address, amount)        5. Donors call charityPlatform.donateStablecoin(campaignId, amount)",
    "kind": "dev",
    "methods": {
      "faucet(address,uint256)": {
        "params": {
          "_amount": "Amount in 6-decimal units (e.g. 1000e6 = 1000 USDT)",
          "_to": "Recipient address"
        }
      }
    },
    "title": "MockUSDT",
    "version": 1
  },
  "userdoc": {
    "kind": "user",
    "methods": {
      "approve(address,uint256)": {
        "notice": "Approve a spender to transfer tokens on your behalf"
      },
      "faucet(address,uint256)": {
        "notice": "Mint test tokens to any address (open faucet — testing only)"
      },
      "transfer(address,uint256)": {
        "notice": "Transfer tokens to another address"
      },
      "transferFrom(address,address,uint256)": {
        "notice": "Transfer tokens from one address to another (requires allowance)"
      }
    },
    "notice": "A local-only ERC-20 token that mimics Tether (USDT) for testing",
    "version": 1
  }
}